:020000040000FA
:060000000A128A11E12F33
:1008DE007008303E08005434493445344D34503499
:1008EE004F34003483120313871307138716061031
:1008FE0086100611861106128612061386178712A7
:10090E0008007E088A007F0882000A128A11882455
:10091E000A128A118000840A04087D060319003425
:10092E00FF0A0319FE0A8C2C5434523441344234DB
:10093E0041344A344F3420345034523441344334E9
:10094E005434493443344F340034443449345334EA
:10095E0050344C344134593420344C3443344434C0
:10096E000034F500F401033071020318BF2CC02CC3
:10097E00032D71080319C42CC52C032D7103031DFF
:10098E00C92CCA2CCC2CF301D02C4030F2007208AA
:10099E00F300113070020318D52CD62C032D7008DD
:1009AE000319DA2CDB2C032D73087007F200720882
:1009BE00F00083120313871307138716700887003E
:1009CE008712F82C87130713871674087507F20021
:1009DE00720884000008860087120130F200720847
:1009EE00F40774087507F200720884008313000878
:1009FE00031D022D032DE92C0800F601F31F082D0F
:100A0E00092D102DF209F309F20A0319F30AF60162
:100A1E00F60AF11F132D142D192DF009F109F00A04
:100A2E000319F10A7008710403191E2D1F2D4E2D86
:100A3E00F501F50A2D2D01300310F00DF10DFF3EDD
:100A4E00031D232D0130F4007408F507F11F302D1E
:100A5E00312D222D71087302031D372D700872027D
:100A6E00031C3A2D3B2D412D7008F2027108031C18
:100A7E00F303F30201300310F10CF00CFF3E031DE3
:100A8E00422D0130F502031D4D2D4E2D312D7608D0
:100A9E000319522D532D582DF209F309F20A031999
:100AAE00F30A7308F1007208F00008001430F10028
:100ABE007930F000F00B612DF10B612D662D831254
:100ACE00031387130713871606108610061586154F
:100ADE0087120730F1007D30F000F00B742DF10B12
:100AEE00742D8312031387130713871606108610AF
:100AFE000615861587122130F000F00B842D831217
:100B0E00031387130713871606108610061586150E
:100B1E00871287130713871606108610061586157B
:100B2E00061686128712871307138716061086106D
:100B3E0006118611061686160613861387120A12DA
:100B4E008A1179240A128A11831203138713071349
:100B5E0087160610861006118611061286160617BF
:100B6E00861787120800F601F11FBE2DBF2DC62D68
:100B7E00F009F109F00A0319F10AF601F60AF31F5A
:100B8E00C92DCA2DD32DF209F309F20A0319F30A5E
:100B9E000130F4007408F606F701F80170087104CC
:100BAE000319DA2DDB2D122EF501F50AE92D013090
:100BBE000310F00DF10DFF3E031DDF2D0130F4008B
:100BCE007408F507F11FEC2DED2DDE2D013003100D
:100BDE00F70DF80DFF3E031DEE2D71087302031D78
:100BEE00FA2D70087202031CFD2DFE2D052E7008C5
:100BFE00F2027108031CF303F302771401300310A1
:100C0E00F10CF00CFF3E031D062E0130F502031D04
:100C1E00112E122EED2D76080319162E172E1C2EC0
:100C2E00F709F809F70A0319F80A7808F1007708A6
:100C3E00F000080083120313D801D901DA01DB0199
:100C4E00DD01DE01DF01E001E101E201203084007F
:100C5E00A030F9000408FA001130FB007908840076
:100C6E0083130008FC00F90A7A0884007C088000CF
:100C7E00FA0AFB0B352E31308400B130F90004082E
:100C8E00FA000C30FB007908840083130008FC0086
:100C9E00F90A7A0884007C088000FA0AFB0B4A2EB7
:100CAE003D3084006730F9000408FA000730FB007D
:100CBE007908840083130008FC00F90A7A0884007E
:100CCE007C088000FA0AFB0B5F2EDC01DC0A033085
:100CDE0083160313850086010330870083160317DE
:100CEE00880102308316031381000A128A115D25D2
:100CFE000A128A110B1D842E852EE52E83120313E4
:100D0E000108FE3E81000B110130D8070318D90AE5
:100D1E000030D907FA3058065904031D972E982E25
:100D2E00E52ED801D9013C305D065E040319A02ED4
:100D3E00A12EA82E0130DD070318DE0A0030DE07D3
:100D4E00CA2EDD01DE013C305F0660040319B02EB1
:100D5E00B12EB82E0130DF070318E00A0030E0078D
:100D6E00CA2EDF01E0011830610662040319C02E9D
:100D7E00C12EC82E0130E1070318E20A0030E20747
:100D8E00CA2EE101E2010130DA070318DB0A003056
:100D9E00DB0705305A065B04031DD62ED72EE52E33
:100DAE00DA01DB015C03031DDD2EDE2EE32E0230A5
:100DBE00F9007908DC00E52EDC01DC0A831203134E
:100DCE005C03031DEB2EEC2E012FF001F101F10A55
:100DDE0020300A128A11B8240A128A11F001023048
:100DEE00F9007908F10031300A128A11B8240A127A
:100DFE008A11812EF001F101F10A3D300A128A1199
:100E0E00B8240A128A110A30F0000030F100831261
:100E1E0003136208F3006108F2000A128A11BA2560
:100E2E000A128A11710883120313E4007008E3009A
:100E3E000A30F0000030F1006208F3006108F200A1
:100E4E000A128A1104250A128A11710883120313D9
:100E5E00E6007008E5006408F1006308F0000A126D
:100E6E008A116F240A128A11F9007908831203136A
:100E7E00C4006608F1006508F0000A128A116F249A
:100E8E000A128A11F900790883120313C5000A3079
:100E9E00F0000030F1006008F3005F08F2000A1263
:100EAE008A11BA250A128A11710883120313E400FB
:100EBE007008E3000A30F0000030F1006008F30023
:100ECE005F08F2000A128A1104250A128A117108AB
:100EDE0083120313E6007008E5006408F10063084E
:100EEE00F0000A128A116F240A128A11F900790889
:100EFE0083120313C6006608F1006508F0000A129B
:100F0E008A116F240A128A11F900790883120313C9
:100F1E00C7000A30F0000030F1005E08F3005D08F3
:100F2E00F2000A128A11BA250A128A117108831266
:100F3E000313E4007008E3000A30F0000030F10003
:100F4E005E08F3005D08F2000A128A1104250A12E7
:100F5E008A11710883120313E6007008E500640815
:100F6E00F1006308F0000A128A116F240A128A1126
:100F7E00F900790883120313C8006608F1006508AA
:100F8E00F0000A128A116F240A128A11F9007908E8
:100F9E0083120313C900F0010230F9007908F10041
:100FAE0044300A128A11B8240A128A11812E0A12AA
:100FBE008A1100288313BD30FD000430FE009B30E3
:100FCE00FF00A03084000A128A118C240A128A11A2
:100FDE006E30FD000430FE007230FF00673084007A
:100FEE000A128A118C240A128A1183010A128A119A
:020FFE00212EA2
:04400E00D4ECFFFFF0
:00000001FF
