:020000040000FA
:060000000A128A11E12F33
:1008BC007008303E08005434493445344D345034BB
:1008CC004F3400347E088A007F0882000A128A1195
:1008DC0068240A128A118000840A04087D06031910
:1008EC000034FF0A0319FE0A6C2C831203138713BE
:1008FC00071387160610861006118611061286122B
:10090C000613861787120D30F100FB30F000F00B48
:10091C008D2CF10B8D2C922C080054345234413414
:10092C00423441344A344F342034503452344134FC
:10093C0043345434493443344F340034443449340C
:10094C00533450344C344134593420344C344334C3
:10095C0044340034831203138713071387160610CD
:10096C00861006158615061686128712C730F200F9
:10097C00BF2CF20BBE2CC22CC32C83120313871377
:10098C000713871606108610061186110616861692
:10099C00061386138712C730F200D42CF20BD32C1B
:1009AC00D72CD82C0A128A117B240A128A11831292
:1009BC00031387130713871606108610061186116A
:1009CC0006128616061786178712C730F200EE2C11
:1009DC00F20BED2CF12CF22C0800F601F31FF72C86
:1009EC00F82CFF2CF209F309F20A0319F30AF601A9
:1009FC00F60AF11F022D032D082DF009F109F00A5A
:100A0C000319F10A7008710403190D2D0E2D3D2DDB
:100A1C00F501F50A1C2D01300310F00DF10DFF3E10
:100A2C00031D122D0130F4007408F507F11F1F2D62
:100A3C00202D112D71087302031D262D70087202D2
:100A4C00031C292D2A2D302D7008F2027108031C6D
:100A5C00F303F30201300310F10CF00CFF3E031D05
:100A6C00312D0130F502031D3C2D3D2D202D760836
:100A7C000319412D422D472DF209F309F20A0319EE
:100A8C00F30A7308F1007208F0000800F500F40195
:100A9C00033071020318532D542DA72D710803191F
:100AAC00582D592DA72D7103031D5D2D5E2D602D25
:100ABC00F301642D4030F2007208F3001130700223
:100ACC000318692D6A2DA72D700803196E2D6F2D33
:100ADC00A72D73087007F2007208F000831203133D
:100AEC00871307138716700887008712C730F20028
:100AFC007F2DF20B7E2D822D832D9C2D83120313C3
:100B0C0087170713871674087507F200720884009C
:100B1C00000886008712C730F200942DF20B932D3B
:100B2C00972D982D0130F2007208F40774087507A0
:100B3C00F2007208840083130008031DA62DA72D54
:100B4C00842D0800F601F11FAC2DAD2DB42DF0094C
:100B5C00F109F00A0319F10AF601F60AF31FB72D91
:100B6C00B82DC12DF209F309F20A0319F30A013069
:100B7C00F4007408F606F701F80170087104031903
:100B8C00C82DC92D002EF501F50AD72D0130031003
:100B9C00F00DF10DFF3E031DCD2D0130F400740856
:100BAC00F507F11FDA2DDB2DCC2D01300310F70DDD
:100BBC00F80DFF3E031DDC2D71087302031DE82D9B
:100BCC0070087202031CEB2DEC2DF32D7008F20251
:100BDC007108031CF303F302771401300310F10CBA
:100BEC00F00CFF3E031DF42D0130F502031DFF2D0B
:100BFC00002EDB2D76080319042E052E0A2EF7097C
:100C0C00F809F70A0319F80A7808F1007708F000D8
:100C1C00080083120313D801D901DA01DB01DD01CD
:100C2C00DE01DF01E001E101E20120308400A030AF
:100C3C00F9000408FA001130FB00790884008313D2
:100C4C000008FC00F90A7A0884007C088000FA0A83
:100C5C00FB0B232E31308400B130F9000408FA006C
:100C6C000C30FB007908840083130008FC00F90A9F
:100C7C007A0884007C088000FA0AFB0B382E3D3081
:100C8C0084006730F9000408FA000730FB0079088B
:100C9C00840083130008FC00F90A7A0884007C089D
:100CAC008000FA0AFB0B4D2EDC01DC0A03308316A4
:100CBC000313850086010330870083160317880110
:100CCC0004308316031381000A128A11B0240A120D
:100CDC008A110630FB001330FA00AD30F900F90B25
:100CEC00752EFA0B752EFB0B752E7C2E0B1D7F2E85
:100CFC00802EE02E831203130108833E81000B111A
:100D0C000130D8070318D90A0030D907FA30580631
:100D1C005904031D922E932EE02ED801D9013C309C
:100D2C005D065E0403199B2E9C2EA32E0130DD075D
:100D3C000318DE0A0030DE07C52EDD01DE013C3073
:100D4C005F0660040319AB2EAC2EB32E0130DF0707
:100D5C000318E00A0030E007C52EDF01E00118306F
:100D6C00610662040319BB2EBC2EC32E0130E107B1
:100D7C000318E20A0030E207C52EE101E20101305E
:100D8C00DA070318DB0A0030DB0705305A065B0470
:100D9C00031DD12ED22EE02EDA01DB015C03031DE4
:100DAC00D82ED92EDE2E0230F9007908DC00E02E88
:100DBC00DC01DC0A0A128A117B240A128A118312C2
:100DCC0003135C03031DEB2EEC2E012FF001F1013C
:100DDC00F10A20300A128A114C250A128A11F001EC
:100DEC000230F9007908F10031300A128A114C25D1
:100DFC000A128A117C2EF001F101F10A3D300A121F
:100E0C008A114C250A128A110A30F0000030F100C8
:100E1C00831203136208F3006108F2000A128A11AC
:100E2C00A8250A128A11710883120313E4007008B2
:100E3C00E3000A30F0000030F1006208F3006108B2
:100E4C00F2000A128A11F3240A128A117108831211
:100E5C000313E6007008E5006408F1006308F00075
:100E6C000A128A115E240A128A11F9007908831277
:100E7C000313C4006608F1006508F0000A128A1119
:100E8C005E240A128A11F900790883120313C50033
:100E9C000A30F0000030F1006008F3005F08F20047
:100EAC000A128A11A8250A128A11710883120313D7
:100EBC00E4007008E3000A30F0000030F100600834
:100ECC00F3005F08F2000A128A11F3240A128A1145
:100EDC00710883120313E6007008E5006408F10042
:100EEC006308F0000A128A115E240A128A11F900B2
:100EFC00790883120313C6006608F1006508F00038
:100F0C000A128A115E240A128A11F90079088312D6
:100F1C000313C7000A30F0000030F1005E08F30044
:100F2C005D08F2000A128A11A8250A128A117108AA
:100F3C0083120313E4007008E3000A30F000003061
:100F4C00F1005E08F3005D08F2000A128A11F32426
:100F5C000A128A11710883120313E6007008E50067
:100F6C006408F1006308F0000A128A115E240A1268
:100F7C008A11F900790883120313C8006608F1007E
:100F8C006508F0000A128A115E240A128A11F9000F
:100F9C00790883120313C900F0010230F9007908B3
:100FAC00F10044300A128A114C250A128A117C2E47
:100FBC000A128A1100288313BD30FD000430FE0094
:100FCC009330FF00A03084000A128A116C240A129C
:100FDC008A116E30FD000430FE006130FF00673076
:100FEC0084000A128A116C240A128A1183010A12D3
:040FFC008A110F2E19
:04400E00D4ECFFFFF0
:00000001FF
